:1000000010C028C027C026C025C024C029C022C0D7
:1000100021C020C01FC01EC01DC01CC01BC01AC0F4
:1000200019C011241FBECFEDCDBF10E0A0E6B0E097
:10003000EAEAF1E002C005900D92A236B107D9F7C5
:1000400020E0A2E6B0E001C01D92A936B207E1F7B8
:1000500088D0A9C0D5CFCD9902C0D898FCCF08953B
:100060001F920F920FB60F9211242F933F934F932D
:100070005F936F937F938F939F93AF93BF93EF9310
:10008000FF93B2994EC08091670090916800CD991E
:100090002AC001969093680080936700C39708F484
:1000A0004FC080916100882339F08130A1F4D99A42
:1000B000DA9A109261000FC0D998DA9881E08093A3
:1000C00061008093600010926600109265001092AB
:1000D00064001092630081E08093620010926800D7
:1000E000109267002DC001970E97A0F480916200D6
:1000F000811110C0B0DF809163009091640001967F
:10010000909364008093630084E690E0909366008F
:100110008093650010926800109267001092620050
:100120000FC080916000813059F4D998DA9880939B
:1001300061001092680010926700109262001BB874
:10014000FF91EF91BF91AF919F918F917F916F91AF
:100150005F914F913F912F910F900FBE0F901F9085
:10016000189587E08ABB80E28BBB17BA18BA379A1A
:1001700087B1876087B90F9A1C9A8EB581608EBD52
:100180008EB588608EBD80E09AE09BBD8ABD619A85
:10019000D99ADA9A789485B7806285BF889585B7B1
:0A01A0008F7D85BFF8CFF894FFCFE4
:0201AA00010151
:00000001FF
